{
    "txid": "af68e5ede71988a5430d74525dee016bc9680ee42042ae7aec3104d87282b769",
    "version": 1,
    "locktime": 0,
    "vin": [
        {
            "txid": "5897de6bd6027a475eadd57019d4e6872c396d0716c4875a5f1a6fcfdf385c1f",
            "vout": 0,
            "scriptSig": {
                "asm": "",
                "hex": ""
            },
            "sequence": 4294967295
        },
        {
            "txid": "bf829c6bcf84579331337659d31f89dfd138f7f7785802d5501c92333145ca7c",
            "vout": 18,
            "scriptSig": {
                "asm": "",
                "hex": ""
            },
            "sequence": 4294967295
        },
        {
            "txid": "22a6f904655d53ae2ff70e701a0bbd90aa3975c0f40bfc6cc996a9049e31cdfc",
            "vout": 1,
            "scriptSig": {
                "asm": "",
                "hex": ""
            },
            "sequence": 4294967295
        }
    ],
    "vout": [
        {
            "value": 0.18,
            "n": 0,
            "scriptPubKey": {
                "asm": "OP_DUP OP_HASH160 cef6d465b00e15c1a8c9d735322e7d59721fe5a7 OP_EQUALVERIFY OP_CHECKSIG",
                "hex": "76a914cef6d465b00e15c1a8c9d735322e7d59721fe5a788ac",
                "reqSigs": 1,
                "type": "pubkeyhash",
                "addresses": [
                    "KqR5BYF83i4orMcBNXs4FiU3btuJPZ68Ka"
                ]
            }
        },
        {
            "value": 4.00,
            "n": 1,
            "scriptPubKey": {
                "asm": "OP_DUP OP_HASH160 b74ea5abb49c7ba5449b7515af7db3310feab9ae OP_EQUALVERIFY OP_CHECKSIG",
                "hex": "76a914b74ea5abb49c7ba5449b7515af7db3310feab9ae88ac",
                "reqSigs": 1,
                "type": "pubkeyhash",
                "addresses": [
                    "KoFzAbnvRmMWs5PsyjHQ48s62MsVcJe1wj"
                ]
            }
        }
    ],
    "hex": "01000000031f5c38dfcf6f1a5f5a87c416076d392c87e6d41970d5ad5e477a02d66bde97580000000000ffffffff7cca453133921c50d5025878f7f738d1df891fd359763331935784cf6b9c82bf1200000000fffffffffccd319e04a996c96cfc0bf4c07539aa90bd0b1a700ef72fae535d6504f9a6220100000000ffffffff0280a81201000000001976a914cef6d465b00e15c1a8c9d735322e7d59721fe5a788ac0084d717000000001976a914b74ea5abb49c7ba5449b7515af7db3310feab9ae88ac00000000"
}
